{
  "_format": "hh-sol-artifact-1",
  "contractName": "Collection9022",
  "sourceName": "contracts/Collection9022.sol",
  "abi": [
    {
      "inputs": [
        {
          "internalType": "address",
          "name": "_tokenAddress",
          "type": "address"
        }
      ],
      "stateMutability": "nonpayable",
      "type": "constructor"
    },
    {
      "anonymous": false,
      "inputs": [
        {
          "indexed": true,
          "internalType": "address",
          "name": "owner",
          "type": "address"
        },
        {
          "indexed": true,
          "internalType": "address",
          "name": "approved",
          "type": "address"
        },
        {
          "indexed": true,
          "internalType": "uint256",
          "name": "tokenId",
          "type": "uint256"
        }
      ],
      "name": "Approval",
      "type": "event"
    },
    {
      "anonymous": false,
      "inputs": [
        {
          "indexed": true,
          "internalType": "address",
          "name": "owner",
          "type": "address"
        },
        {
          "indexed": true,
          "internalType": "address",
          "name": "operator",
          "type": "address"
        },
        {
          "indexed": false,
          "internalType": "bool",
          "name": "approved",
          "type": "bool"
        }
      ],
      "name": "ApprovalForAll",
      "type": "event"
    },
    {
      "anonymous": false,
      "inputs": [
        {
          "indexed": true,
          "internalType": "address",
          "name": "previousOwner",
          "type": "address"
        },
        {
          "indexed": true,
          "internalType": "address",
          "name": "newOwner",
          "type": "address"
        }
      ],
      "name": "OwnershipTransferred",
      "type": "event"
    },
    {
      "anonymous": false,
      "inputs": [
        {
          "indexed": true,
          "internalType": "address",
          "name": "from",
          "type": "address"
        },
        {
          "indexed": true,
          "internalType": "address",
          "name": "to",
          "type": "address"
        },
        {
          "indexed": true,
          "internalType": "uint256",
          "name": "tokenId",
          "type": "uint256"
        }
      ],
      "name": "Transfer",
      "type": "event"
    },
    {
      "inputs": [],
      "name": "MAX_SUPPLY",
      "outputs": [
        {
          "internalType": "uint256",
          "name": "",
          "type": "uint256"
        }
      ],
      "stateMutability": "view",
      "type": "function"
    },
    {
      "inputs": [
        {
          "internalType": "address[]",
          "name": "_addresses",
          "type": "address[]"
        },
        {
          "internalType": "uint256[]",
          "name": "_amounts",
          "type": "uint256[]"
        }
      ],
      "name": "addToWhitelist",
      "outputs": [],
      "stateMutability": "nonpayable",
      "type": "function"
    },
    {
      "inputs": [
        {
          "internalType": "address",
          "name": "to",
          "type": "address"
        },
        {
          "internalType": "uint256",
          "name": "tokenId",
          "type": "uint256"
        }
      ],
      "name": "approve",
      "outputs": [],
      "stateMutability": "nonpayable",
      "type": "function"
    },
    {
      "inputs": [
        {
          "internalType": "address",
          "name": "owner",
          "type": "address"
        }
      ],
      "name": "balanceOf",
      "outputs": [
        {
          "internalType": "uint256",
          "name": "",
          "type": "uint256"
        }
      ],
      "stateMutability": "view",
      "type": "function"
    },
    {
      "inputs": [],
      "name": "baseURI",
      "outputs": [
        {
          "internalType": "string",
          "name": "",
          "type": "string"
        }
      ],
      "stateMutability": "view",
      "type": "function"
    },
    {
      "inputs": [
        {
          "internalType": "uint256",
          "name": "tokenId",
          "type": "uint256"
        }
      ],
      "name": "burn",
      "outputs": [],
      "stateMutability": "nonpayable",
      "type": "function"
    },
    {
      "inputs": [
        {
          "internalType": "address",
          "name": "_address",
          "type": "address"
        }
      ],
      "name": "checkWhitelist",
      "outputs": [
        {
          "internalType": "uint256",
          "name": "",
          "type": "uint256"
        }
      ],
      "stateMutability": "view",
      "type": "function"
    },
    {
      "inputs": [],
      "name": "flipSale",
      "outputs": [],
      "stateMutability": "nonpayable",
      "type": "function"
    },
    {
      "inputs": [
        {
          "internalType": "address",
          "name": "_address",
          "type": "address"
        }
      ],
      "name": "getAmountMinted",
      "outputs": [
        {
          "internalType": "uint256",
          "name": "",
          "type": "uint256"
        }
      ],
      "stateMutability": "view",
      "type": "function"
    },
    {
      "inputs": [
        {
          "internalType": "uint256",
          "name": "tokenId",
          "type": "uint256"
        }
      ],
      "name": "getApproved",
      "outputs": [
        {
          "internalType": "address",
          "name": "",
          "type": "address"
        }
      ],
      "stateMutability": "view",
      "type": "function"
    },
    {
      "inputs": [],
      "name": "getManager",
      "outputs": [
        {
          "internalType": "address",
          "name": "",
          "type": "address"
        }
      ],
      "stateMutability": "view",
      "type": "function"
    },
    {
      "inputs": [
        {
          "internalType": "address",
          "name": "owner",
          "type": "address"
        },
        {
          "internalType": "address",
          "name": "operator",
          "type": "address"
        }
      ],
      "name": "isApprovedForAll",
      "outputs": [
        {
          "internalType": "bool",
          "name": "",
          "type": "bool"
        }
      ],
      "stateMutability": "view",
      "type": "function"
    },
    {
      "inputs": [],
      "name": "maxPassTxn",
      "outputs": [
        {
          "internalType": "uint256",
          "name": "",
          "type": "uint256"
        }
      ],
      "stateMutability": "view",
      "type": "function"
    },
    {
      "inputs": [
        {
          "internalType": "uint32",
          "name": "numberOfTokens",
          "type": "uint32"
        }
      ],
      "name": "mintNFT",
      "outputs": [],
      "stateMutability": "payable",
      "type": "function"
    },
    {
      "inputs": [],
      "name": "name",
      "outputs": [
        {
          "internalType": "string",
          "name": "",
          "type": "string"
        }
      ],
      "stateMutability": "view",
      "type": "function"
    },
    {
      "inputs": [],
      "name": "owner",
      "outputs": [
        {
          "internalType": "address",
          "name": "",
          "type": "address"
        }
      ],
      "stateMutability": "view",
      "type": "function"
    },
    {
      "inputs": [
        {
          "internalType": "uint256",
          "name": "tokenId",
          "type": "uint256"
        }
      ],
      "name": "ownerOf",
      "outputs": [
        {
          "internalType": "address",
          "name": "",
          "type": "address"
        }
      ],
      "stateMutability": "view",
      "type": "function"
    },
    {
      "inputs": [],
      "name": "price",
      "outputs": [
        {
          "internalType": "uint256",
          "name": "",
          "type": "uint256"
        }
      ],
      "stateMutability": "view",
      "type": "function"
    },
    {
      "inputs": [],
      "name": "renounceOwnership",
      "outputs": [],
      "stateMutability": "nonpayable",
      "type": "function"
    },
    {
      "inputs": [
        {
          "internalType": "uint256",
          "name": "reserveAmount",
          "type": "uint256"
        },
        {
          "internalType": "address",
          "name": "mintAddress",
          "type": "address"
        }
      ],
      "name": "reserveMintNFT",
      "outputs": [],
      "stateMutability": "nonpayable",
      "type": "function"
    },
    {
      "inputs": [
        {
          "internalType": "address",
          "name": "from",
          "type": "address"
        },
        {
          "internalType": "address",
          "name": "to",
          "type": "address"
        },
        {
          "internalType": "uint256",
          "name": "tokenId",
          "type": "uint256"
        }
      ],
      "name": "safeTransferFrom",
      "outputs": [],
      "stateMutability": "nonpayable",
      "type": "function"
    },
    {
      "inputs": [
        {
          "internalType": "address",
          "name": "from",
          "type": "address"
        },
        {
          "internalType": "address",
          "name": "to",
          "type": "address"
        },
        {
          "internalType": "uint256",
          "name": "tokenId",
          "type": "uint256"
        },
        {
          "internalType": "bytes",
          "name": "data",
          "type": "bytes"
        }
      ],
      "name": "safeTransferFrom",
      "outputs": [],
      "stateMutability": "nonpayable",
      "type": "function"
    },
    {
      "inputs": [],
      "name": "saleIsActive",
      "outputs": [
        {
          "internalType": "bool",
          "name": "",
          "type": "bool"
        }
      ],
      "stateMutability": "view",
      "type": "function"
    },
    {
      "inputs": [
        {
          "internalType": "address",
          "name": "operator",
          "type": "address"
        },
        {
          "internalType": "bool",
          "name": "approved",
          "type": "bool"
        }
      ],
      "name": "setApprovalForAll",
      "outputs": [],
      "stateMutability": "nonpayable",
      "type": "function"
    },
    {
      "inputs": [
        {
          "internalType": "string",
          "name": "newBaseURI",
          "type": "string"
        }
      ],
      "name": "setBaseURI",
      "outputs": [],
      "stateMutability": "nonpayable",
      "type": "function"
    },
    {
      "inputs": [
        {
          "internalType": "address",
          "name": "_manager",
          "type": "address"
        }
      ],
      "name": "setManager",
      "outputs": [],
      "stateMutability": "nonpayable",
      "type": "function"
    },
    {
      "inputs": [
        {
          "internalType": "uint256",
          "name": "_maxSupply",
          "type": "uint256"
        }
      ],
      "name": "setMaxSupply",
      "outputs": [],
      "stateMutability": "nonpayable",
      "type": "function"
    },
    {
      "inputs": [
        {
          "internalType": "uint256",
          "name": "_price",
          "type": "uint256"
        }
      ],
      "name": "setPrice",
      "outputs": [],
      "stateMutability": "nonpayable",
      "type": "function"
    },
    {
      "inputs": [
        {
          "internalType": "bytes4",
          "name": "interfaceId",
          "type": "bytes4"
        }
      ],
      "name": "supportsInterface",
      "outputs": [
        {
          "internalType": "bool",
          "name": "",
          "type": "bool"
        }
      ],
      "stateMutability": "view",
      "type": "function"
    },
    {
      "inputs": [],
      "name": "symbol",
      "outputs": [
        {
          "internalType": "string",
          "name": "",
          "type": "string"
        }
      ],
      "stateMutability": "view",
      "type": "function"
    },
    {
      "inputs": [
        {
          "internalType": "uint256",
          "name": "index",
          "type": "uint256"
        }
      ],
      "name": "tokenByIndex",
      "outputs": [
        {
          "internalType": "uint256",
          "name": "",
          "type": "uint256"
        }
      ],
      "stateMutability": "view",
      "type": "function"
    },
    {
      "inputs": [
        {
          "internalType": "address",
          "name": "owner",
          "type": "address"
        },
        {
          "internalType": "uint256",
          "name": "index",
          "type": "uint256"
        }
      ],
      "name": "tokenOfOwnerByIndex",
      "outputs": [
        {
          "internalType": "uint256",
          "name": "",
          "type": "uint256"
        }
      ],
      "stateMutability": "view",
      "type": "function"
    },
    {
      "inputs": [
        {
          "internalType": "uint256",
          "name": "tokenId",
          "type": "uint256"
        }
      ],
      "name": "tokenURI",
      "outputs": [
        {
          "internalType": "string",
          "name": "",
          "type": "string"
        }
      ],
      "stateMutability": "view",
      "type": "function"
    },
    {
      "inputs": [],
      "name": "totalSupply",
      "outputs": [
        {
          "internalType": "uint256",
          "name": "",
          "type": "uint256"
        }
      ],
      "stateMutability": "view",
      "type": "function"
    },
    {
      "inputs": [],
      "name": "totalToken",
      "outputs": [
        {
          "internalType": "uint256",
          "name": "",
          "type": "uint256"
        }
      ],
      "stateMutability": "view",
      "type": "function"
    },
    {
      "inputs": [
        {
          "internalType": "address",
          "name": "from",
          "type": "address"
        },
        {
          "internalType": "address",
          "name": "to",
          "type": "address"
        },
        {
          "internalType": "uint256",
          "name": "tokenId",
          "type": "uint256"
        }
      ],
      "name": "transferFrom",
      "outputs": [],
      "stateMutability": "nonpayable",
      "type": "function"
    },
    {
      "inputs": [
        {
          "internalType": "address",
          "name": "newOwner",
          "type": "address"
        }
      ],
      "name": "transferOwnership",
      "outputs": [],
      "stateMutability": "nonpayable",
      "type": "function"
    },
    {
      "inputs": [
        {
          "internalType": "uint32",
          "name": "numberOfTokens",
          "type": "uint32"
        }
      ],
      "name": "whitelistMintNFT",
      "outputs": [],
      "stateMutability": "nonpayable",
      "type": "function"
    },
    {
      "inputs": [
        {
          "internalType": "address",
          "name": "_address",
          "type": "address"
        },
        {
          "internalType": "uint256",
          "name": "_amount",
          "type": "uint256"
        }
      ],
      "name": "widthdrawiAI",
      "outputs": [],
      "stateMutability": "nonpayable",
      "type": "function"
    },
    {
      "inputs": [
        {
          "internalType": "address",
          "name": "_address",
          "type": "address"
        }
      ],
      "name": "withdrawAll",
      "outputs": [],
      "stateMutability": "nonpayable",
      "type": "function"
    }
  ],
  "bytecode": "0x60806040526108a1600e55684be4e7267b6ae00000600f556000601060006101000a81548160ff0219169083151502179055503480156200003f57600080fd5b5060405162005d5038038062005d50833981810160405281019062000065919062000297565b6040518060400160405280600981526020017f39303232205465737400000000000000000000000000000000000000000000008152506040518060400160405280600481526020017f39303232000000000000000000000000000000000000000000000000000000008152508160009081620000e2919062000543565b508060019081620000f4919062000543565b505050620001176200010b6200015f60201b60201c565b6200016760201b60201c565b80601360006101000a81548173ffffffffffffffffffffffffffffffffffffffff021916908373ffffffffffffffffffffffffffffffffffffffff160217905550506200062a565b600033905090565b6000600a60009054906101000a900473ffffffffffffffffffffffffffffffffffffffff16905081600a60006101000a81548173ffffffffffffffffffffffffffffffffffffffff021916908373ffffffffffffffffffffffffffffffffffffffff1602179055508173ffffffffffffffffffffffffffffffffffffffff168173ffffffffffffffffffffffffffffffffffffffff167f8be0079c531659141344cd1fd0a4f28419497f9722a3daafe3b4186f6b6457e060405160405180910390a35050565b600080fd5b600073ffffffffffffffffffffffffffffffffffffffff82169050919050565b60006200025f8262000232565b9050919050565b620002718162000252565b81146200027d57600080fd5b50565b600081519050620002918162000266565b92915050565b600060208284031215620002b057620002af6200022d565b5b6000620002c08482850162000280565b91505092915050565b600081519050919050565b7f4e487b7100000000000000000000000000000000000000000000000000000000600052604160045260246000fd5b7f4e487b7100000000000000000000000000000000000000000000000000000000600052602260045260246000fd5b600060028204905060018216806200034b57607f821691505b60208210810362000361576200036062000303565b5b50919050565b60008190508160005260206000209050919050565b60006020601f8301049050919050565b600082821b905092915050565b600060088302620003cb7fffffffffffffffffffffffffffffffffffffffffffffffffffffffffffffffff826200038c565b620003d786836200038c565b95508019841693508086168417925050509392505050565b6000819050919050565b6000819050919050565b6000620004246200041e6200041884620003ef565b620003f9565b620003ef565b9050919050565b6000819050919050565b620004408362000403565b620004586200044f826200042b565b84845462000399565b825550505050565b600090565b6200046f62000460565b6200047c81848462000435565b505050565b5b81811015620004a4576200049860008262000465565b60018101905062000482565b5050565b601f821115620004f357620004bd8162000367565b620004c8846200037c565b81016020851015620004d8578190505b620004f0620004e7856200037c565b83018262000481565b50505b505050565b600082821c905092915050565b60006200051860001984600802620004f8565b1980831691505092915050565b600062000533838362000505565b9150826002028217905092915050565b6200054e82620002c9565b67ffffffffffffffff8111156200056a5762000569620002d4565b5b62000576825462000332565b62000583828285620004a8565b600060209050601f831160018114620005bb5760008415620005a6578287015190505b620005b2858262000525565b86555062000622565b601f198416620005cb8662000367565b60005b82811015620005f557848901518255600182019150602085019450602081019050620005ce565b8683101562000615578489015162000611601f89168262000505565b8355505b6001600288020188555050505b505050505050565b615716806200063a6000396000f3fe60806040526004361061023b5760003560e01c8063715018a61161012e578063cf1582e8116100ab578063eb8d24441161006f578063eb8d244414610886578063ed7d5abc146108b1578063f2fde38b146108da578063f8d5054214610903578063fa09e6301461092c5761023b565b8063cf1582e8146107a1578063d0ebdbe7146107cc578063d5009584146107f5578063e3c37cbb14610820578063e985e9c5146108495761023b565b8063969e40b1116100f2578063969e40b1146106be578063a035b1fe146106e7578063a22cb46514610712578063b88d4fde1461073b578063c87b56dd146107645761023b565b8063715018a6146106115780637ba5e621146106285780638da5cb5b1461063f57806391b7f5ed1461066a57806395d89b41146106935761023b565b806341de0e52116101bc578063626be56711610180578063626be567146105185780636352211e146105435780636c0360eb146105805780636f8b44b0146105ab57806370a08231146105d45761023b565b806341de0e521461044457806342842e0e1461046057806342966c68146104895780634f6ccce7146104b257806355f804b3146104ef5761023b565b806318160ddd1161020357806318160ddd1461034b5780631950c2181461037657806323b872dd146103b35780632f745c59146103dc57806332cb6b0c146104195761023b565b806301ffc9a714610240578063030cdd4f1461027d57806306fdde03146102ba578063081812fc146102e5578063095ea7b314610322575b600080fd5b34801561024c57600080fd5b5061026760048036038101906102629190613b51565b610955565b6040516102749190613b99565b60405180910390f35b34801561028957600080fd5b506102a4600480360381019061029f9190613c12565b610967565b6040516102b19190613c58565b60405180910390f35b3480156102c657600080fd5b506102cf6109b0565b6040516102dc9190613d03565b60405180910390f35b3480156102f157600080fd5b5061030c60048036038101906103079190613d51565b610a42565b6040516103199190613d8d565b60405180910390f35b34801561032e57600080fd5b5061034960048036038101906103449190613da8565b610a88565b005b34801561035757600080fd5b50610360610b9f565b60405161036d9190613c58565b60405180910390f35b34801561038257600080fd5b5061039d60048036038101906103989190613c12565b610bac565b6040516103aa9190613c58565b60405180910390f35b3480156103bf57600080fd5b506103da60048036038101906103d59190613de8565b610bf5565b005b3480156103e857600080fd5b5061040360048036038101906103fe9190613da8565b610c55565b6040516104109190613c58565b60405180910390f35b34801561042557600080fd5b5061042e610cfa565b60405161043b9190613c58565b60405180910390f35b61045e60048036038101906104599190613e77565b610d00565b005b34801561046c57600080fd5b5061048760048036038101906104829190613de8565b610ff8565b005b34801561049557600080fd5b506104b060048036038101906104ab9190613d51565b611018565b005b3480156104be57600080fd5b506104d960048036038101906104d49190613d51565b611074565b6040516104e69190613c58565b60405180910390f35b3480156104fb57600080fd5b5061051660048036038101906105119190613fd9565b6110e5565b005b34801561052457600080fd5b5061052d6111d3565b60405161053a9190613c58565b60405180910390f35b34801561054f57600080fd5b5061056a60048036038101906105659190613d51565b6111e4565b6040516105779190613d8d565b60405180910390f35b34801561058c57600080fd5b5061059561126a565b6040516105a29190613d03565b60405180910390f35b3480156105b757600080fd5b506105d260048036038101906105cd9190613d51565b6112f8565b005b3480156105e057600080fd5b506105fb60048036038101906105f69190613c12565b6113dd565b6040516106089190613c58565b60405180910390f35b34801561061d57600080fd5b50610626611494565b005b34801561063457600080fd5b5061063d6114a8565b005b34801561064b57600080fd5b506106546115af565b6040516106619190613d8d565b60405180910390f35b34801561067657600080fd5b50610691600480360381019061068c9190613d51565b6115d9565b005b34801561069f57600080fd5b506106a86116be565b6040516106b59190613d03565b60405180910390f35b3480156106ca57600080fd5b506106e560048036038101906106e09190613e77565b611750565b005b3480156106f357600080fd5b506106fc611a0d565b6040516107099190613c58565b60405180910390f35b34801561071e57600080fd5b506107396004803603810190610734919061404e565b611a13565b005b34801561074757600080fd5b50610762600480360381019061075d919061412f565b611a29565b005b34801561077057600080fd5b5061078b60048036038101906107869190613d51565b611a8b565b6040516107989190613d03565b60405180910390f35b3480156107ad57600080fd5b506107b6611af3565b6040516107c39190613c58565b60405180910390f35b3480156107d857600080fd5b506107f360048036038101906107ee9190613c12565b611af8565b005b34801561080157600080fd5b5061080a611b44565b6040516108179190613d8d565b60405180910390f35b34801561082c57600080fd5b50610847600480360381019061084291906141b2565b611c49565b005b34801561085557600080fd5b50610870600480360381019061086b91906141f2565b611dc7565b60405161087d9190613b99565b60405180910390f35b34801561089257600080fd5b5061089b611e5b565b6040516108a89190613b99565b60405180910390f35b3480156108bd57600080fd5b506108d860048036038101906108d39190613da8565b611e6e565b005b3480156108e657600080fd5b5061090160048036038101906108fc9190613c12565b611fee565b005b34801561090f57600080fd5b5061092a600480360381019061092591906142e8565b612071565b005b34801561093857600080fd5b50610953600480360381019061094e9190613c12565b612240565b005b600061096082612414565b9050919050565b6000600d60008373ffffffffffffffffffffffffffffffffffffffff1673ffffffffffffffffffffffffffffffffffffffff168152602001908152602001600020549050919050565b6060600080546109bf90614398565b80601f01602080910402602001604051908101604052809291908181526020018280546109eb90614398565b8015610a385780601f10610a0d57610100808354040283529160200191610a38565b820191906000526020600020905b815481529060010190602001808311610a1b57829003601f168201915b5050505050905090565b6000610a4d8261248e565b6004600083815260200190815260200160002060009054906101000a900473ffffffffffffffffffffffffffffffffffffffff169050919050565b6000610a93826111e4565b90508073ffffffffffffffffffffffffffffffffffffffff168373ffffffffffffffffffffffffffffffffffffffff1603610b03576040517f08c379a0000000000000000000000000000000000000000000000000000000008152600401610afa9061443b565b60405180910390fd5b8073ffffffffffffffffffffffffffffffffffffffff16610b226124d9565b73ffffffffffffffffffffffffffffffffffffffff161480610b515750610b5081610b4b6124d9565b611dc7565b5b610b90576040517f08c379a0000000000000000000000000000000000000000000000000000000008152600401610b87906144cd565b60405180910390fd5b610b9a83836124e1565b505050565b6000600880549050905090565b6000600c60008373ffffffffffffffffffffffffffffffffffffffff1673ffffffffffffffffffffffffffffffffffffffff168152602001908152602001600020549050919050565b610c06610c006124d9565b8261259a565b610c45576040517f08c379a0000000000000000000000000000000000000000000000000000000008152600401610c3c9061455f565b60405180910390fd5b610c5083838361262f565b505050565b6000610c60836113dd565b8210610ca1576040517f08c379a0000000000000000000000000000000000000000000000000000000008152600401610c98906145f1565b60405180910390fd5b600660008473ffffffffffffffffffffffffffffffffffffffff1673ffffffffffffffffffffffffffffffffffffffff168152602001908152602001600020600083815260200190815260200160002054905092915050565b600e5481565b601060009054906101000a900460ff16610d4f576040517f08c379a0000000000000000000000000000000000000000000000000000000008152600401610d469061465d565b60405180910390fd5b60018163ffffffff161015610d99576040517f08c379a0000000000000000000000000000000000000000000000000000000008152600401610d90906146c9565b60405180910390fd5b600a8163ffffffff16600d60003373ffffffffffffffffffffffffffffffffffffffff1673ffffffffffffffffffffffffffffffffffffffff16815260200190815260200160002054610dec9190614718565b1115610e2d576040517f08c379a0000000000000000000000000000000000000000000000000000000008152600401610e2490614798565b60405180910390fd5b600e548163ffffffff16610e3f610b9f565b610e499190614718565b1115610e8a576040517f08c379a0000000000000000000000000000000000000000000000000000000008152600401610e8190614804565b60405180910390fd5b601360009054906101000a900473ffffffffffffffffffffffffffffffffffffffff1673ffffffffffffffffffffffffffffffffffffffff166323b872dd33308463ffffffff16600f54610ede9190614824565b6040518463ffffffff1660e01b8152600401610efc93929190614866565b6020604051808303816000875af1158015610f1b573d6000803e3d6000fd5b505050506040513d601f19601f82011682018060405250810190610f3f91906148b2565b5060005b8163ffffffff16811015610ff45760006001610f5f600b612928565b610f699190614718565b9050600e548111610fe057610f7e3382612936565b610f88600b612954565b6001600d60003373ffffffffffffffffffffffffffffffffffffffff1673ffffffffffffffffffffffffffffffffffffffff1681526020019081526020016000206000828254610fd89190614718565b925050819055505b508080610fec906148df565b915050610f43565b5050565b61101383838360405180602001604052806000815250611a29565b505050565b6110296110236124d9565b8261259a565b611068576040517f08c379a000000000000000000000000000000000000000000000000000000000815260040161105f9061455f565b60405180910390fd5b6110718161296a565b50565b600061107e610b9f565b82106110bf576040517f08c379a00000000000000000000000000000000000000000000000000000000081526004016110b690614999565b60405180910390fd5b600882815481106110d3576110d26149b9565b5b90600052602060002001549050919050565b6110ed6124d9565b73ffffffffffffffffffffffffffffffffffffffff1661110b6115af565b73ffffffffffffffffffffffffffffffffffffffff16148061118157506111306124d9565b73ffffffffffffffffffffffffffffffffffffffff16601260009054906101000a900473ffffffffffffffffffffffffffffffffffffffff1673ffffffffffffffffffffffffffffffffffffffff16145b6111c0576040517f08c379a00000000000000000000000000000000000000000000000000000000081526004016111b790614a5a565b60405180910390fd5b80601190816111cf9190614c26565b5050565b60006111df600b612928565b905090565b6000806111f083612ab8565b9050600073ffffffffffffffffffffffffffffffffffffffff168173ffffffffffffffffffffffffffffffffffffffff1603611261576040517f08c379a000000000000000000000000000000000000000000000000000000000815260040161125890614d44565b60405180910390fd5b80915050919050565b6011805461127790614398565b80601f01602080910402602001604051908101604052809291908181526020018280546112a390614398565b80156112f05780601f106112c5576101008083540402835291602001916112f0565b820191906000526020600020905b8154815290600101906020018083116112d357829003601f168201915b505050505081565b6113006124d9565b73ffffffffffffffffffffffffffffffffffffffff1661131e6115af565b73ffffffffffffffffffffffffffffffffffffffff16148061139457506113436124d9565b73ffffffffffffffffffffffffffffffffffffffff16601260009054906101000a900473ffffffffffffffffffffffffffffffffffffffff1673ffffffffffffffffffffffffffffffffffffffff16145b6113d3576040517f08c379a00000000000000000000000000000000000000000000000000000000081526004016113ca90614a5a565b60405180910390fd5b80600e8190555050565b60008073ffffffffffffffffffffffffffffffffffffffff168273ffffffffffffffffffffffffffffffffffffffff160361144d576040517f08c379a000000000000000000000000000000000000000000000000000000000815260040161144490614dd6565b60405180910390fd5b600360008373ffffffffffffffffffffffffffffffffffffffff1673ffffffffffffffffffffffffffffffffffffffff168152602001908152602001600020549050919050565b61149c612af5565b6114a66000612b73565b565b6114b06124d9565b73ffffffffffffffffffffffffffffffffffffffff166114ce6115af565b73ffffffffffffffffffffffffffffffffffffffff16148061154457506114f36124d9565b73ffffffffffffffffffffffffffffffffffffffff16601260009054906101000a900473ffffffffffffffffffffffffffffffffffffffff1673ffffffffffffffffffffffffffffffffffffffff16145b611583576040517f08c379a000000000000000000000000000000000000000000000000000000000815260040161157a90614a5a565b60405180910390fd5b601060009054906101000a900460ff1615601060006101000a81548160ff021916908315150217905550565b6000600a60009054906101000a900473ffffffffffffffffffffffffffffffffffffffff16905090565b6115e16124d9565b73ffffffffffffffffffffffffffffffffffffffff166115ff6115af565b73ffffffffffffffffffffffffffffffffffffffff16148061167557506116246124d9565b73ffffffffffffffffffffffffffffffffffffffff16601260009054906101000a900473ffffffffffffffffffffffffffffffffffffffff1673ffffffffffffffffffffffffffffffffffffffff16145b6116b4576040517f08c379a00000000000000000000000000000000000000000000000000000000081526004016116ab90614a5a565b60405180910390fd5b80600f8190555050565b6060600180546116cd90614398565b80601f01602080910402602001604051908101604052809291908181526020018280546116f990614398565b80156117465780601f1061171b57610100808354040283529160200191611746565b820191906000526020600020905b81548152906001019060200180831161172957829003601f168201915b5050505050905090565b601060009054906101000a900460ff1661179f576040517f08c379a00000000000000000000000000000000000000000000000000000000081526004016117969061465d565b60405180910390fd5b6000600c60003373ffffffffffffffffffffffffffffffffffffffff1673ffffffffffffffffffffffffffffffffffffffff1681526020019081526020016000205403611821576040517f08c379a000000000000000000000000000000000000000000000000000000000815260040161181890614e42565b60405180910390fd5b60018163ffffffff16101561186b576040517f08c379a0000000000000000000000000000000000000000000000000000000008152600401611862906146c9565b60405180910390fd5b600c60003373ffffffffffffffffffffffffffffffffffffffff1673ffffffffffffffffffffffffffffffffffffffff168152602001908152602001600020548163ffffffff1611156118f3576040517f08c379a00000000000000000000000000000000000000000000000000000000081526004016118ea90614eae565b60405180910390fd5b600e548163ffffffff16611905610b9f565b61190f9190614718565b1115611950576040517f08c379a000000000000000000000000000000000000000000000000000000000815260040161194790614804565b60405180910390fd5b60005b8163ffffffff168110156119ad576000600161196f600b612928565b6119799190614718565b9050600e5481116119995761198e3382612936565b611998600b612954565b5b5080806119a5906148df565b915050611953565b508063ffffffff16600c60003373ffffffffffffffffffffffffffffffffffffffff1673ffffffffffffffffffffffffffffffffffffffff1681526020019081526020016000206000828254611a039190614ece565b9250508190555050565b600f5481565b611a25611a1e6124d9565b8383612c39565b5050565b611a3a611a346124d9565b8361259a565b611a79576040517f08c379a0000000000000000000000000000000000000000000000000000000008152600401611a709061455f565b60405180910390fd5b611a8584848484612da5565b50505050565b6060611a968261248e565b6000611aa0612e01565b90506000815111611ac05760405180602001604052806000815250611aeb565b80611aca84612e93565b604051602001611adb929190614f3e565b6040516020818303038152906040525b915050919050565b600a81565b611b00612af5565b80601260006101000a81548173ffffffffffffffffffffffffffffffffffffffff021916908373ffffffffffffffffffffffffffffffffffffffff16021790555050565b6000611b4e6124d9565b73ffffffffffffffffffffffffffffffffffffffff16611b6c6115af565b73ffffffffffffffffffffffffffffffffffffffff161480611be25750611b916124d9565b73ffffffffffffffffffffffffffffffffffffffff16601260009054906101000a900473ffffffffffffffffffffffffffffffffffffffff1673ffffffffffffffffffffffffffffffffffffffff16145b611c21576040517f08c379a0000000000000000000000000000000000000000000000000000000008152600401611c1890614a5a565b60405180910390fd5b601260009054906101000a900473ffffffffffffffffffffffffffffffffffffffff16905090565b611c516124d9565b73ffffffffffffffffffffffffffffffffffffffff16611c6f6115af565b73ffffffffffffffffffffffffffffffffffffffff161480611ce55750611c946124d9565b73ffffffffffffffffffffffffffffffffffffffff16601260009054906101000a900473ffffffffffffffffffffffffffffffffffffffff1673ffffffffffffffffffffffffffffffffffffffff16145b611d24576040517f08c379a0000000000000000000000000000000000000000000000000000000008152600401611d1b90614a5a565b60405180910390fd5b600e5482611d30610b9f565b611d3a9190614718565b1115611d7b576040517f08c379a0000000000000000000000000000000000000000000000000000000008152600401611d7290614804565b60405180910390fd5b60005b82811015611dc257611da5826001611d96600b612928565b611da09190614718565b612936565b611daf600b612954565b8080611dba906148df565b915050611d7e565b505050565b6000600560008473ffffffffffffffffffffffffffffffffffffffff1673ffffffffffffffffffffffffffffffffffffffff16815260200190815260200160002060008373ffffffffffffffffffffffffffffffffffffffff1673ffffffffffffffffffffffffffffffffffffffff16815260200190815260200160002060009054906101000a900460ff16905092915050565b601060009054906101000a900460ff1681565b611e766124d9565b73ffffffffffffffffffffffffffffffffffffffff16611e946115af565b73ffffffffffffffffffffffffffffffffffffffff161480611f0a5750611eb96124d9565b73ffffffffffffffffffffffffffffffffffffffff16601260009054906101000a900473ffffffffffffffffffffffffffffffffffffffff1673ffffffffffffffffffffffffffffffffffffffff16145b611f49576040517f08c379a0000000000000000000000000000000000000000000000000000000008152600401611f4090614a5a565b60405180910390fd5b601360009054906101000a900473ffffffffffffffffffffffffffffffffffffffff1673ffffffffffffffffffffffffffffffffffffffff1663a9059cbb83836040518363ffffffff1660e01b8152600401611fa6929190614f62565b6020604051808303816000875af1158015611fc5573d6000803e3d6000fd5b505050506040513d601f19601f82011682018060405250810190611fe991906148b2565b505050565b611ff6612af5565b600073ffffffffffffffffffffffffffffffffffffffff168173ffffffffffffffffffffffffffffffffffffffff1603612065576040517f08c379a000000000000000000000000000000000000000000000000000000000815260040161205c90614ffd565b60405180910390fd5b61206e81612b73565b50565b6120796124d9565b73ffffffffffffffffffffffffffffffffffffffff166120976115af565b73ffffffffffffffffffffffffffffffffffffffff16148061210d57506120bc6124d9565b73ffffffffffffffffffffffffffffffffffffffff16601260009054906101000a900473ffffffffffffffffffffffffffffffffffffffff1673ffffffffffffffffffffffffffffffffffffffff16145b61214c576040517f08c379a000000000000000000000000000000000000000000000000000000000815260040161214390614a5a565b60405180910390fd5b818190508484905014612194576040517f08c379a000000000000000000000000000000000000000000000000000000000815260040161218b90615069565b60405180910390fd5b60005b84849050811015612239578282828181106121b5576121b46149b9565b5b90506020020135600c60008787858181106121d3576121d26149b9565b5b90506020020160208101906121e89190613c12565b73ffffffffffffffffffffffffffffffffffffffff1673ffffffffffffffffffffffffffffffffffffffff168152602001908152602001600020819055508080612231906148df565b915050612197565b5050505050565b6122486124d9565b73ffffffffffffffffffffffffffffffffffffffff166122666115af565b73ffffffffffffffffffffffffffffffffffffffff1614806122dc575061228b6124d9565b73ffffffffffffffffffffffffffffffffffffffff16601260009054906101000a900473ffffffffffffffffffffffffffffffffffffffff1673ffffffffffffffffffffffffffffffffffffffff16145b61231b576040517f08c379a000000000000000000000000000000000000000000000000000000000815260040161231290614a5a565b60405180910390fd5b600047905060008111612363576040517f08c379a000000000000000000000000000000000000000000000000000000000815260040161235a906150d5565b60405180910390fd5b60008273ffffffffffffffffffffffffffffffffffffffff168260405161238990615126565b60006040518083038185875af1925050503d80600081146123c6576040519150601f19603f3d011682016040523d82523d6000602084013e6123cb565b606091505b505090508061240f576040517f08c379a000000000000000000000000000000000000000000000000000000000815260040161240690615187565b60405180910390fd5b505050565b60007f780e9d63000000000000000000000000000000000000000000000000000000007bffffffffffffffffffffffffffffffffffffffffffffffffffffffff1916827bffffffffffffffffffffffffffffffffffffffffffffffffffffffff19161480612487575061248682612f61565b5b9050919050565b61249781613043565b6124d6576040517f08c379a00000000000000000000000000000000000000000000000000000000081526004016124cd90614d44565b60405180910390fd5b50565b600033905090565b816004600083815260200190815260200160002060006101000a81548173ffffffffffffffffffffffffffffffffffffffff021916908373ffffffffffffffffffffffffffffffffffffffff160217905550808273ffffffffffffffffffffffffffffffffffffffff16612554836111e4565b73ffffffffffffffffffffffffffffffffffffffff167f8c5be1e5ebec7d5bd14f71427d1e84f3dd0314c0f7b2291e5b200ac8c7c3b92560405160405180910390a45050565b6000806125a6836111e4565b90508073ffffffffffffffffffffffffffffffffffffffff168473ffffffffffffffffffffffffffffffffffffffff1614806125e857506125e78185611dc7565b5b8061262657508373ffffffffffffffffffffffffffffffffffffffff1661260e84610a42565b73ffffffffffffffffffffffffffffffffffffffff16145b91505092915050565b8273ffffffffffffffffffffffffffffffffffffffff1661264f826111e4565b73ffffffffffffffffffffffffffffffffffffffff16146126a5576040517f08c379a000000000000000000000000000000000000000000000000000000000815260040161269c90615219565b60405180910390fd5b600073ffffffffffffffffffffffffffffffffffffffff168273ffffffffffffffffffffffffffffffffffffffff1603612714576040517f08c379a000000000000000000000000000000000000000000000000000000000815260040161270b906152ab565b60405180910390fd5b6127218383836001613084565b8273ffffffffffffffffffffffffffffffffffffffff16612741826111e4565b73ffffffffffffffffffffffffffffffffffffffff1614612797576040517f08c379a000000000000000000000000000000000000000000000000000000000815260040161278e90615219565b60405180910390fd5b6004600082815260200190815260200160002060006101000a81549073ffffffffffffffffffffffffffffffffffffffff02191690556001600360008573ffffffffffffffffffffffffffffffffffffffff1673ffffffffffffffffffffffffffffffffffffffff168152602001908152602001600020600082825403925050819055506001600360008473ffffffffffffffffffffffffffffffffffffffff1673ffffffffffffffffffffffffffffffffffffffff16815260200190815260200160002060008282540192505081905550816002600083815260200190815260200160002060006101000a81548173ffffffffffffffffffffffffffffffffffffffff021916908373ffffffffffffffffffffffffffffffffffffffff160217905550808273ffffffffffffffffffffffffffffffffffffffff168473ffffffffffffffffffffffffffffffffffffffff167fddf252ad1be2c89b69c2b068fc378daa952ba7f163c4a11628f55a4df523b3ef60405160405180910390a46129238383836001613096565b505050565b600081600001549050919050565b61295082826040518060200160405280600081525061309c565b5050565b6001816000016000828254019250508190555050565b6000612975826111e4565b9050612985816000846001613084565b61298e826111e4565b90506004600083815260200190815260200160002060006101000a81549073ffffffffffffffffffffffffffffffffffffffff02191690556001600360008373ffffffffffffffffffffffffffffffffffffffff1673ffffffffffffffffffffffffffffffffffffffff168152602001908152602001600020600082825403925050819055506002600083815260200190815260200160002060006101000a81549073ffffffffffffffffffffffffffffffffffffffff021916905581600073ffffffffffffffffffffffffffffffffffffffff168273ffffffffffffffffffffffffffffffffffffffff167fddf252ad1be2c89b69c2b068fc378daa952ba7f163c4a11628f55a4df523b3ef60405160405180910390a4612ab4816000846001613096565b5050565b60006002600083815260200190815260200160002060009054906101000a900473ffffffffffffffffffffffffffffffffffffffff169050919050565b612afd6124d9565b73ffffffffffffffffffffffffffffffffffffffff16612b1b6115af565b73ffffffffffffffffffffffffffffffffffffffff1614612b71576040517f08c379a0000000000000000000000000000000000000000000000000000000008152600401612b6890615317565b60405180910390fd5b565b6000600a60009054906101000a900473ffffffffffffffffffffffffffffffffffffffff16905081600a60006101000a81548173ffffffffffffffffffffffffffffffffffffffff021916908373ffffffffffffffffffffffffffffffffffffffff1602179055508173ffffffffffffffffffffffffffffffffffffffff168173ffffffffffffffffffffffffffffffffffffffff167f8be0079c531659141344cd1fd0a4f28419497f9722a3daafe3b4186f6b6457e060405160405180910390a35050565b8173ffffffffffffffffffffffffffffffffffffffff168373ffffffffffffffffffffffffffffffffffffffff1603612ca7576040517f08c379a0000000000000000000000000000000000000000000000000000000008152600401612c9e90615383565b60405180910390fd5b80600560008573ffffffffffffffffffffffffffffffffffffffff1673ffffffffffffffffffffffffffffffffffffffff16815260200190815260200160002060008473ffffffffffffffffffffffffffffffffffffffff1673ffffffffffffffffffffffffffffffffffffffff16815260200190815260200160002060006101000a81548160ff0219169083151502179055508173ffffffffffffffffffffffffffffffffffffffff168373ffffffffffffffffffffffffffffffffffffffff167f17307eab39ab6107e8899845ad3d59bd9653f200f220920489ca2b5937696c3183604051612d989190613b99565b60405180910390a3505050565b612db084848461262f565b612dbc848484846130f7565b612dfb576040517f08c379a0000000000000000000000000000000000000000000000000000000008152600401612df290615415565b60405180910390fd5b50505050565b606060118054612e1090614398565b80601f0160208091040260200160405190810160405280929190818152602001828054612e3c90614398565b8015612e895780601f10612e5e57610100808354040283529160200191612e89565b820191906000526020600020905b815481529060010190602001808311612e6c57829003601f168201915b5050505050905090565b606060006001612ea28461327e565b01905060008167ffffffffffffffff811115612ec157612ec0613eae565b5b6040519080825280601f01601f191660200182016040528015612ef35781602001600182028036833780820191505090505b509050600082602001820190505b600115612f56578080600190039150507f3031323334353637383961626364656600000000000000000000000000000000600a86061a8153600a8581612f4a57612f49615435565b5b04945060008503612f01575b819350505050919050565b60007f80ac58cd000000000000000000000000000000000000000000000000000000007bffffffffffffffffffffffffffffffffffffffffffffffffffffffff1916827bffffffffffffffffffffffffffffffffffffffffffffffffffffffff1916148061302c57507f5b5e139f000000000000000000000000000000000000000000000000000000007bffffffffffffffffffffffffffffffffffffffffffffffffffffffff1916827bffffffffffffffffffffffffffffffffffffffffffffffffffffffff1916145b8061303c575061303b826133d1565b5b9050919050565b60008073ffffffffffffffffffffffffffffffffffffffff1661306583612ab8565b73ffffffffffffffffffffffffffffffffffffffff1614159050919050565b6130908484848461343b565b50505050565b50505050565b6130a68383613599565b6130b360008484846130f7565b6130f2576040517f08c379a00000000000000000000000000000000000000000000000000000000081526004016130e990615415565b60405180910390fd5b505050565b60006131188473ffffffffffffffffffffffffffffffffffffffff166137b6565b15613271578373ffffffffffffffffffffffffffffffffffffffff1663150b7a026131416124d9565b8786866040518563ffffffff1660e01b815260040161316394939291906154b9565b6020604051808303816000875af192505050801561319f57506040513d601f19601f8201168201806040525081019061319c919061551a565b60015b613221573d80600081146131cf576040519150601f19603f3d011682016040523d82523d6000602084013e6131d4565b606091505b506000815103613219576040517f08c379a000000000000000000000000000000000000000000000000000000000815260040161321090615415565b60405180910390fd5b805181602001fd5b63150b7a0260e01b7bffffffffffffffffffffffffffffffffffffffffffffffffffffffff1916817bffffffffffffffffffffffffffffffffffffffffffffffffffffffff191614915050613276565b600190505b949350505050565b600080600090507a184f03e93ff9f4daa797ed6e38ed64bf6a1f01000000000000000083106132dc577a184f03e93ff9f4daa797ed6e38ed64bf6a1f01000000000000000083816132d2576132d1615435565b5b0492506040810190505b6d04ee2d6d415b85acef81000000008310613319576d04ee2d6d415b85acef8100000000838161330f5761330e615435565b5b0492506020810190505b662386f26fc10000831061334857662386f26fc10000838161333e5761333d615435565b5b0492506010810190505b6305f5e1008310613371576305f5e100838161336757613366615435565b5b0492506008810190505b612710831061339657612710838161338c5761338b615435565b5b0492506004810190505b606483106133b957606483816133af576133ae615435565b5b0492506002810190505b600a83106133c8576001810190505b80915050919050565b60007f01ffc9a7000000000000000000000000000000000000000000000000000000007bffffffffffffffffffffffffffffffffffffffffffffffffffffffff1916827bffffffffffffffffffffffffffffffffffffffffffffffffffffffff1916149050919050565b613447848484846137d9565b600181111561348b576040517f08c379a0000000000000000000000000000000000000000000000000000000008152600401613482906155b9565b60405180910390fd5b6000829050600073ffffffffffffffffffffffffffffffffffffffff168573ffffffffffffffffffffffffffffffffffffffff16036134d2576134cd816137df565b613511565b8373ffffffffffffffffffffffffffffffffffffffff168573ffffffffffffffffffffffffffffffffffffffff16146135105761350f8582613828565b5b5b600073ffffffffffffffffffffffffffffffffffffffff168473ffffffffffffffffffffffffffffffffffffffff16036135535761354e81613995565b613592565b8473ffffffffffffffffffffffffffffffffffffffff168473ffffffffffffffffffffffffffffffffffffffff1614613591576135908482613a66565b5b5b5050505050565b600073ffffffffffffffffffffffffffffffffffffffff168273ffffffffffffffffffffffffffffffffffffffff1603613608576040517f08c379a00000000000000000000000000000000000000000000000000000000081526004016135ff90615625565b60405180910390fd5b61361181613043565b15613651576040517f08c379a000000000000000000000000000000000000000000000000000000000815260040161364890615691565b60405180910390fd5b61365f600083836001613084565b61366881613043565b156136a8576040517f08c379a000000000000000000000000000000000000000000000000000000000815260040161369f90615691565b60405180910390fd5b6001600360008473ffffffffffffffffffffffffffffffffffffffff1673ffffffffffffffffffffffffffffffffffffffff16815260200190815260200160002060008282540192505081905550816002600083815260200190815260200160002060006101000a81548173ffffffffffffffffffffffffffffffffffffffff021916908373ffffffffffffffffffffffffffffffffffffffff160217905550808273ffffffffffffffffffffffffffffffffffffffff16600073ffffffffffffffffffffffffffffffffffffffff167fddf252ad1be2c89b69c2b068fc378daa952ba7f163c4a11628f55a4df523b3ef60405160405180910390a46137b2600083836001613096565b5050565b6000808273ffffffffffffffffffffffffffffffffffffffff163b119050919050565b50505050565b6008805490506009600083815260200190815260200160002081905550600881908060018154018082558091505060019003906000526020600020016000909190919091505550565b60006001613835846113dd565b61383f9190614ece565b9050600060076000848152602001908152602001600020549050818114613924576000600660008673ffffffffffffffffffffffffffffffffffffffff1673ffffffffffffffffffffffffffffffffffffffff168152602001908152602001600020600084815260200190815260200160002054905080600660008773ffffffffffffffffffffffffffffffffffffffff1673ffffffffffffffffffffffffffffffffffffffff168152602001908152602001600020600084815260200190815260200160002081905550816007600083815260200190815260200160002081905550505b6007600084815260200190815260200160002060009055600660008573ffffffffffffffffffffffffffffffffffffffff1673ffffffffffffffffffffffffffffffffffffffff16815260200190815260200160002060008381526020019081526020016000206000905550505050565b600060016008805490506139a99190614ece565b90506000600960008481526020019081526020016000205490506000600883815481106139d9576139d86149b9565b5b9060005260206000200154905080600883815481106139fb576139fa6149b9565b5b906000526020600020018190555081600960008381526020019081526020016000208190555060096000858152602001908152602001600020600090556008805480613a4a57613a496156b1565b5b6001900381819060005260206000200160009055905550505050565b6000613a71836113dd565b905081600660008573ffffffffffffffffffffffffffffffffffffffff1673ffffffffffffffffffffffffffffffffffffffff168152602001908152602001600020600083815260200190815260200160002081905550806007600084815260200190815260200160002081905550505050565b6000604051905090565b600080fd5b600080fd5b60007fffffffff0000000000000000000000000000000000000000000000000000000082169050919050565b613b2e81613af9565b8114613b3957600080fd5b50565b600081359050613b4b81613b25565b92915050565b600060208284031215613b6757613b66613aef565b5b6000613b7584828501613b3c565b91505092915050565b60008115159050919050565b613b9381613b7e565b82525050565b6000602082019050613bae6000830184613b8a565b92915050565b600073ffffffffffffffffffffffffffffffffffffffff82169050919050565b6000613bdf82613bb4565b9050919050565b613bef81613bd4565b8114613bfa57600080fd5b50565b600081359050613c0c81613be6565b92915050565b600060208284031215613c2857613c27613aef565b5b6000613c3684828501613bfd565b91505092915050565b6000819050919050565b613c5281613c3f565b82525050565b6000602082019050613c6d6000830184613c49565b92915050565b600081519050919050565b600082825260208201905092915050565b60005b83811015613cad578082015181840152602081019050613c92565b60008484015250505050565b6000601f19601f8301169050919050565b6000613cd582613c73565b613cdf8185613c7e565b9350613cef818560208601613c8f565b613cf881613cb9565b840191505092915050565b60006020820190508181036000830152613d1d8184613cca565b905092915050565b613d2e81613c3f565b8114613d3957600080fd5b50565b600081359050613d4b81613d25565b92915050565b600060208284031215613d6757613d66613aef565b5b6000613d7584828501613d3c565b91505092915050565b613d8781613bd4565b82525050565b6000602082019050613da26000830184613d7e565b92915050565b60008060408385031215613dbf57613dbe613aef565b5b6000613dcd85828601613bfd565b9250506020613dde85828601613d3c565b9150509250929050565b600080600060608486031215613e0157613e00613aef565b5b6000613e0f86828701613bfd565b9350506020613e2086828701613bfd565b9250506040613e3186828701613d3c565b9150509250925092565b600063ffffffff82169050919050565b613e5481613e3b565b8114613e5f57600080fd5b50565b600081359050613e7181613e4b565b92915050565b600060208284031215613e8d57613e8c613aef565b5b6000613e9b84828501613e62565b91505092915050565b600080fd5b600080fd5b7f4e487b7100000000000000000000000000000000000000000000000000000000600052604160045260246000fd5b613ee682613cb9565b810181811067ffffffffffffffff82111715613f0557613f04613eae565b5b80604052505050565b6000613f18613ae5565b9050613f248282613edd565b919050565b600067ffffffffffffffff821115613f4457613f43613eae565b5b613f4d82613cb9565b9050602081019050919050565b82818337600083830152505050565b6000613f7c613f7784613f29565b613f0e565b905082815260208101848484011115613f9857613f97613ea9565b5b613fa3848285613f5a565b509392505050565b600082601f830112613fc057613fbf613ea4565b5b8135613fd0848260208601613f69565b91505092915050565b600060208284031215613fef57613fee613aef565b5b600082013567ffffffffffffffff81111561400d5761400c613af4565b5b61401984828501613fab565b91505092915050565b61402b81613b7e565b811461403657600080fd5b50565b60008135905061404881614022565b92915050565b6000806040838503121561406557614064613aef565b5b600061407385828601613bfd565b925050602061408485828601614039565b9150509250929050565b600067ffffffffffffffff8211156140a9576140a8613eae565b5b6140b282613cb9565b9050602081019050919050565b60006140d26140cd8461408e565b613f0e565b9050828152602081018484840111156140ee576140ed613ea9565b5b6140f9848285613f5a565b509392505050565b600082601f83011261411657614115613ea4565b5b81356141268482602086016140bf565b91505092915050565b6000806000806080858703121561414957614148613aef565b5b600061415787828801613bfd565b945050602061416887828801613bfd565b935050604061417987828801613d3c565b925050606085013567ffffffffffffffff81111561419a57614199613af4565b5b6141a687828801614101565b91505092959194509250565b600080604083850312156141c9576141c8613aef565b5b60006141d785828601613d3c565b92505060206141e885828601613bfd565b9150509250929050565b6000806040838503121561420957614208613aef565b5b600061421785828601613bfd565b925050602061422885828601613bfd565b9150509250929050565b600080fd5b600080fd5b60008083601f84011261425257614251613ea4565b5b8235905067ffffffffffffffff81111561426f5761426e614232565b5b60208301915083602082028301111561428b5761428a614237565b5b9250929050565b60008083601f8401126142a8576142a7613ea4565b5b8235905067ffffffffffffffff8111156142c5576142c4614232565b5b6020830191508360208202830111156142e1576142e0614237565b5b9250929050565b6000806000806040858703121561430257614301613aef565b5b600085013567ffffffffffffffff8111156143205761431f613af4565b5b61432c8782880161423c565b9450945050602085013567ffffffffffffffff81111561434f5761434e613af4565b5b61435b87828801614292565b925092505092959194509250565b7f4e487b7100000000000000000000000000000000000000000000000000000000600052602260045260246000fd5b600060028204905060018216806143b057607f821691505b6020821081036143c3576143c2614369565b5b50919050565b7f4552433732313a20617070726f76616c20746f2063757272656e74206f776e6560008201527f7200000000000000000000000000000000000000000000000000000000000000602082015250565b6000614425602183613c7e565b9150614430826143c9565b604082019050919050565b6000602082019050818103600083015261445481614418565b9050919050565b7f4552433732313a20617070726f76652063616c6c6572206973206e6f7420746f60008201527f6b656e206f776e6572206f7220617070726f76656420666f7220616c6c000000602082015250565b60006144b7603d83613c7e565b91506144c28261445b565b604082019050919050565b600060208201905081810360008301526144e6816144aa565b9050919050565b7f4552433732313a2063616c6c6572206973206e6f7420746f6b656e206f776e6560008201527f72206f7220617070726f76656400000000000000000000000000000000000000602082015250565b6000614549602d83613c7e565b9150614554826144ed565b604082019050919050565b600060208201905081810360008301526145788161453c565b9050919050565b7f455243373231456e756d657261626c653a206f776e657220696e646578206f7560008201527f74206f6620626f756e6473000000000000000000000000000000000000000000602082015250565b60006145db602b83613c7e565b91506145e68261457f565b604082019050919050565b6000602082019050818103600083015261460a816145ce565b9050919050565b7f53616c65206973206e6f74206163746976652e00000000000000000000000000600082015250565b6000614647601383613c7e565b915061465282614611565b602082019050919050565b600060208201905081810360008301526146768161463a565b9050919050565b7f596f75206d757374206174206c65617374206d696e74203120546f6b656e0000600082015250565b60006146b3601e83613c7e565b91506146be8261467d565b602082019050919050565b600060208201905081810360008301526146e2816146a6565b9050919050565b7f4e487b7100000000000000000000000000000000000000000000000000000000600052601160045260246000fd5b600061472382613c3f565b915061472e83613c3f565b9250828201905080821115614746576147456146e9565b5b92915050565b7f45786365656473206d617820616d6f756e74207065722077616c6c6574000000600082015250565b6000614782601d83613c7e565b915061478d8261474c565b602082019050919050565b600060208201905081810360008301526147b181614775565b9050919050565b7f3930323220436f6c6c656374696f6e20536f6c64204f75740000000000000000600082015250565b60006147ee601883613c7e565b91506147f9826147b8565b602082019050919050565b6000602082019050818103600083015261481d816147e1565b9050919050565b600061482f82613c3f565b915061483a83613c3f565b925082820261484881613c3f565b9150828204841483151761485f5761485e6146e9565b5b5092915050565b600060608201905061487b6000830186613d7e565b6148886020830185613d7e565b6148956040830184613c49565b949350505050565b6000815190506148ac81614022565b92915050565b6000602082840312156148c8576148c7613aef565b5b60006148d68482850161489d565b91505092915050565b60006148ea82613c3f565b91507fffffffffffffffffffffffffffffffffffffffffffffffffffffffffffffffff820361491c5761491b6146e9565b5b600182019050919050565b7f455243373231456e756d657261626c653a20676c6f62616c20696e646578206f60008201527f7574206f6620626f756e64730000000000000000000000000000000000000000602082015250565b6000614983602c83613c7e565b915061498e82614927565b604082019050919050565b600060208201905081810360008301526149b281614976565b9050919050565b7f4e487b7100000000000000000000000000000000000000000000000000000000600052603260045260246000fd5b7f43616c6c6572206973206e6f7420746865206f776e6572206f72206d616e616760008201527f6572000000000000000000000000000000000000000000000000000000000000602082015250565b6000614a44602283613c7e565b9150614a4f826149e8565b604082019050919050565b60006020820190508181036000830152614a7381614a37565b9050919050565b60008190508160005260206000209050919050565b60006020601f8301049050919050565b600082821b905092915050565b600060088302614adc7fffffffffffffffffffffffffffffffffffffffffffffffffffffffffffffffff82614a9f565b614ae68683614a9f565b95508019841693508086168417925050509392505050565b6000819050919050565b6000614b23614b1e614b1984613c3f565b614afe565b613c3f565b9050919050565b6000819050919050565b614b3d83614b08565b614b51614b4982614b2a565b848454614aac565b825550505050565b600090565b614b66614b59565b614b71818484614b34565b505050565b5b81811015614b9557614b8a600082614b5e565b600181019050614b77565b5050565b601f821115614bda57614bab81614a7a565b614bb484614a8f565b81016020851015614bc3578190505b614bd7614bcf85614a8f565b830182614b76565b50505b505050565b600082821c905092915050565b6000614bfd60001984600802614bdf565b1980831691505092915050565b6000614c168383614bec565b9150826002028217905092915050565b614c2f82613c73565b67ffffffffffffffff811115614c4857614c47613eae565b5b614c528254614398565b614c5d828285614b99565b600060209050601f831160018114614c905760008415614c7e578287015190505b614c888582614c0a565b865550614cf0565b601f198416614c9e86614a7a565b60005b82811015614cc657848901518255600182019150602085019450602081019050614ca1565b86831015614ce35784890151614cdf601f891682614bec565b8355505b6001600288020188555050505b505050505050565b7f4552433732313a20696e76616c696420746f6b656e2049440000000000000000600082015250565b6000614d2e601883613c7e565b9150614d3982614cf8565b602082019050919050565b60006020820190508181036000830152614d5d81614d21565b9050919050565b7f4552433732313a2061646472657373207a65726f206973206e6f74206120766160008201527f6c6964206f776e65720000000000000000000000000000000000000000000000602082015250565b6000614dc0602983613c7e565b9150614dcb82614d64565b604082019050919050565b60006020820190508181036000830152614def81614db3565b9050919050565b7f4e6f7420617574686f72697a656420666f722077686974656c69737400000000600082015250565b6000614e2c601c83613c7e565b9150614e3782614df6565b602082019050919050565b60006020820190508181036000830152614e5b81614e1f565b9050919050565b7f457863656564732077686974656c697374206c696d6974000000000000000000600082015250565b6000614e98601783613c7e565b9150614ea382614e62565b602082019050919050565b60006020820190508181036000830152614ec781614e8b565b9050919050565b6000614ed982613c3f565b9150614ee483613c3f565b9250828203905081811115614efc57614efb6146e9565b5b92915050565b600081905092915050565b6000614f1882613c73565b614f228185614f02565b9350614f32818560208601613c8f565b80840191505092915050565b6000614f4a8285614f0d565b9150614f568284614f0d565b91508190509392505050565b6000604082019050614f776000830185613d7e565b614f846020830184613c49565b9392505050565b7f4f776e61626c653a206e6577206f776e657220697320746865207a65726f206160008201527f6464726573730000000000000000000000000000000000000000000000000000602082015250565b6000614fe7602683613c7e565b9150614ff282614f8b565b604082019050919050565b6000602082019050818103600083015261501681614fda565b9050919050565b7f4164647265737320616e6420616d6f756e7473206e6f7420657175616c730000600082015250565b6000615053601e83613c7e565b915061505e8261501d565b602082019050919050565b6000602082019050818103600083015261508281615046565b9050919050565b7f42616c616e6365206973207a65726f0000000000000000000000000000000000600082015250565b60006150bf600f83613c7e565b91506150ca82615089565b602082019050919050565b600060208201905081810360008301526150ee816150b2565b9050919050565b600081905092915050565b50565b60006151106000836150f5565b915061511b82615100565b600082019050919050565b600061513182615103565b9150819050919050565b7f5472616e73666572206661696c65642e00000000000000000000000000000000600082015250565b6000615171601083613c7e565b915061517c8261513b565b602082019050919050565b600060208201905081810360008301526151a081615164565b9050919050565b7f4552433732313a207472616e736665722066726f6d20696e636f72726563742060008201527f6f776e6572000000000000000000000000000000000000000000000000000000602082015250565b6000615203602583613c7e565b915061520e826151a7565b604082019050919050565b60006020820190508181036000830152615232816151f6565b9050919050565b7f4552433732313a207472616e7366657220746f20746865207a65726f2061646460008201527f7265737300000000000000000000000000000000000000000000000000000000602082015250565b6000615295602483613c7e565b91506152a082615239565b604082019050919050565b600060208201905081810360008301526152c481615288565b9050919050565b7f4f776e61626c653a2063616c6c6572206973206e6f7420746865206f776e6572600082015250565b6000615301602083613c7e565b915061530c826152cb565b602082019050919050565b60006020820190508181036000830152615330816152f4565b9050919050565b7f4552433732313a20617070726f766520746f2063616c6c657200000000000000600082015250565b600061536d601983613c7e565b915061537882615337565b602082019050919050565b6000602082019050818103600083015261539c81615360565b9050919050565b7f4552433732313a207472616e7366657220746f206e6f6e20455243373231526560008201527f63656976657220696d706c656d656e7465720000000000000000000000000000602082015250565b60006153ff603283613c7e565b915061540a826153a3565b604082019050919050565b6000602082019050818103600083015261542e816153f2565b9050919050565b7f4e487b7100000000000000000000000000000000000000000000000000000000600052601260045260246000fd5b600081519050919050565b600082825260208201905092915050565b600061548b82615464565b615495818561546f565b93506154a5818560208601613c8f565b6154ae81613cb9565b840191505092915050565b60006080820190506154ce6000830187613d7e565b6154db6020830186613d7e565b6154e86040830185613c49565b81810360608301526154fa8184615480565b905095945050505050565b60008151905061551481613b25565b92915050565b6000602082840312156155305761552f613aef565b5b600061553e84828501615505565b91505092915050565b7f455243373231456e756d657261626c653a20636f6e736563757469766520747260008201527f616e7366657273206e6f7420737570706f727465640000000000000000000000602082015250565b60006155a3603583613c7e565b91506155ae82615547565b604082019050919050565b600060208201905081810360008301526155d281615596565b9050919050565b7f4552433732313a206d696e7420746f20746865207a65726f2061646472657373600082015250565b600061560f602083613c7e565b915061561a826155d9565b602082019050919050565b6000602082019050818103600083015261563e81615602565b9050919050565b7f4552433732313a20746f6b656e20616c7265616479206d696e74656400000000600082015250565b600061567b601c83613c7e565b915061568682615645565b602082019050919050565b600060208201905081810360008301526156aa8161566e565b9050919050565b7f4e487b7100000000000000000000000000000000000000000000000000000000600052603160045260246000fdfea26469706673582212204583821c723ff6428a32b3ba81a54f9fd30e8f6a2b97ff37ca4336382826769364736f6c63430008120033",
  "linkReferences": {},
  "deployedLinkReferences": {}
}